S01700007761746572696E675F73797374656D2E73726563A8
S11300000C9450000C9465000C9465000C946500ED
S11300100C9465000C9465000C9465000C946500C8
S11300200C9465000C9465000C9465000C946500B8
S11300300C9465000C9465000C9465000C946500A8
S11300400C9465000C9465000C9465000C94650098
S11300500C9465000C9465000C9465000C94650088
S11300600C9465000C9465000C9465000C94650078
S11300700C9465000C9465000C9465000C94650068
S11300800C9465000C9465000C9465000C94650058
S11300900C9465000C948A000C9465000C94650023
S11300A011241FBECFEFCDBFDFE3DEBF18E2A0E017
S11300B0B8E2E7E1F9E002C005900D92A230B10781
S11300C0D9F70E94BE000C9475040C940000E0E083
S11300D0F6E084E0808381E58093020610920606B0
S11300E0808181608083089581E0809308068091F7
S11300F00B0680FFFCCF80911006909111060895A5
S113010088ED90E084BF9093600093E184BF909366
S1130110610008951F920F920FB60F9211242F932E
S11301203F934F935F936F937F938F939F93AF937B
S1130130BF93CF93EF93FF930E9408010E9466013F
S1130140C82F8EEE98E40E9427018C2F0E94200174
S113015081E199E40E942701FF91EF91CF91BF9132
S1130160AF919F918F917F916F915F914F913F914B
S11301702F910F900FBE0F901F9018950E94800032
S113018080910028909101280E940C010E94670030
S11301900E940401789483E08093810482E0809338
S11301A0850481E080938604C0E0D0E0CE010E9403
S11301B03D01219685E099E40E9427010E94740084
S11301C024E6829FC00111246FEF70E00E94690150
S11301D064567109CB01992324F488279927861B37
S11301E0970B082E000C990B0E943D0180E199E4C5
S11301F00E9427018FE39DE023E08150904020403E
S1130200E1F700C00000D2CF80E880936104089534
S113021080E8809367040895809368089093690840
S113022083E08093670881E08093210482E08093D7
S1130230220480E88093650880EC80936608089522
S1130240809362088091640885FFFCCF08950F9322
S11302501F93CF93DF938C01C0E0D0E003C00E94D2
S113026020012196F801EC0FFD1F80818111F7CF49
S1130270DF91CF911F910F9108950F931F93CF9307
S1130280DF93CDB7DEB7C456D109CDBFDEBF9F9390
S11302908F9384E199E49F938F938E010F5F1F4F97
S11302A01F930F930E949101C8010E9427010F9090
S11302B00F900F900F900F900F90CC59DF4FCDBF40
S11302C0DEBFDF91CF911F910F9108958091600857
S11302D0089597FB072E16F4009407D077FD09D0F4
S11302E00E947D0107FC05D03EF4909581959F4FB7
S11302F00895709561957F4F0895AA1BBB1B51E12A
S113030007C0AA1FBB1FA617B70710F0A61BB70B81
S1130310881F991F5A95A9F780959095BC01CD0126
S11303200895AEE0B0E0E7E9F1E00C9452040D89E1
S11303301E8986E08C8309831A838FEF9FE78D8360
S11303409E83AE01475E5F4F6F89788DCE01019623
S11303500E94B301EF81F885E00FF11F10822E9601
S1130360E4E00C946B04ABE0B0E0E9EBF1E00C9456
S113037044046C017B018A01FC011682178283818B
S113038081FFCCC1CE0101963C01F6019381F701B6
S113039093FD859193FF81917F01882309F4BAC16C
S11303A0853239F493FD859193FF81917F018532E4
S11303B029F4B60190E00E94AA03E7CF912C212CE6
S11303C0312CFFE1F315D8F08B3279F038F4803218
S11303D079F08332A1F4232D20611DC08D3261F0A8
S11303E0803369F4232D216016C0832D8260382E5A
S11303F0E32DE4603E2E2AC0F32DF8601DC037FCC7
S11304002DC020ED280F2A3040F08E32B9F436FC8E
S113041081C1232D2064322E19C036FE06C08AE025
S1130420989E200D1124922E11C0EAE02E9E200DDC
S11304301124222EF32DF0623F2E08C08C3621F4B5
S1130440832D8068382E02C0883641F4F70193FD6D
S1130450859193FF81917F018111B3CF982F9F7D67
S11304609554933028F40C5F1F4F9FE399830DC07C
S1130470833631F0833771F0833509F059C021C0D8
S1130480F801808189830E5F1F4F88248394912C07
S1130490530113C02801F2E04F0E511CF801A08053
S11304A0B18036FE03C0692D70E002C06FEF7FEFAC
S11304B0C5010E949F034C018201F32DFF773F2E5B
S11304C016C0280122E0420E511CF801A080B18020
S11304D036FE03C0692D70E002C06FEF7FEFC501E7
S11304E00E9494034C01F32DF0683F2E820133FCEB
S11304F01BC0822D90E088169906B0F4B60180E204
S113050090E00E94AA032A94F4CFF50137FC859168
S113051037FE81915F01B60190E00E94AA03211089
S11305202A9421E0821A91088114910471F7E8C099
S1130530843611F0893641F5F80137FE07C0608131
S11305407181828193810C5F1F4F08C0608171812A
S1130550072E000C880B990B0E5F1F4FF32DFF76AF
S11305603F2E97FF09C090958095709561957F4FB8
S11305708F4F9F4FF0683F2E2AE030E0A3010E9486
S1130580E603882E861845C0853731F4232D2F7E47
S1130590B22E2AE030E025C0932D997FB92E8F36F4
S11305A0C1F018F4883579F0B5C0803719F0883770
S11305B021F0B0C0E92FE061BE2EB4FE0DC0FB2DCA
S11305C0F460BF2E09C034FE0AC0292F2660B22E63
S11305D006C028E030E005C020E130E002C020E1A0
S11305E032E0F801B7FE07C0608171818281938196
S11305F00C5F1F4F06C06081718180E090E00E5F48
S11306001F4FA3010E94E603882E8618FB2DFF7757
S11306103F2E36FE0DC0232D2E7FA22E891458F4B2
S113062034FE0BC032FC09C0832D8E7EA82E05C07B
S1130630B82CA32C03C0B82C01C0B92CA4FE0FC045
S1130640FE01E80DF11D8081803321F49A2D997EFD
S1130650A92E09C0A2FE06C0B394B39404C08A2D87
S1130660867809F0B394A3FC11C0A0FE06C0B214AE
S113067088F4280C922C9B180EC0B21460F4B601B6
S113068080E290E00E94AA03B394F7CFB21418F466
S11306902B1802C0982C212CA4FE10C0B60180E3B4
S11306A090E00E94AA03A2FE17C0A1FC03C088E741
S11306B090E002C088E590E0B6010CC08A2D8678EF
S11306C059F0A1FE02C08BE201C080E2A7FC8DE2DA
S11306D0B60190E00E94AA03891438F4B60180E3BD
S11306E090E00E94AA039A94F7CF8A94F301E80D4C
S11306F0F11D8081B60190E00E94AA038110F5CF1C
S1130700222009F442CEB60180E290E00E94AA03BE
S11307102A94F6CFF6018681978102C08FEF9FEF6E
S11307202B96E2E10C945D04FC010590615070404D
S11307300110D8F7809590958E0F9F1F0895FC01A6
S11307406150704001900110D8F7809590958E0FFC
S11307509F1F08950F931F93CF93DF93FB01238172
S113076021FD03C08FEF9FEF2CC022FF16C04681EE
S11307705781248135814217530744F4A081B18104
S11307809D012F5F3F4F208331838C9326813781D6
S11307902F5F3F4F2683378314C08B01EC01FB018D
S11307A00084F185E02D0995892BE1F6D801169690
S11307B08D919C911797019616968D939C931797FC
S11307C0CE01DF91CF911F910F910895FA01AA27CD
S11307D0283051F1203181F1E8946F936E7F6E5F80
S11307E07F4F8F4F9F4FAF4FB1E03ED0B4E03CD02E
S11307F0670F781F891F9A1FA11D680F791F8A1F11
S1130800911DA11D6A0F711D811D911DA11D20D077
S113081009F468943F912AE0269F11243019305D31
S11308203193DEF6CF010895462F4770405D419322
S1130830B3E00FD0C9F7F6CF462F4F70405D4A336F
S113084018F0495D31FD4052419302D0A9F7EACF37
S1130850B4E0A6959795879577956795BA95C9F766
S113086000976105710508959B01AC010A2E069459
S11308705795479537952795BA95C9F7620F731F12
S1130880841F951FA01D08952F923F924F925F924F
S11308906F927F928F929F92AF92BF92CF92DF928C
S11308A0EF92FF920F931F93CF93DF93CDB7DEB7F1
S11308B0CA1BDB0BCDBFDEBF09942A883988488860
S11308C05F846E847D848C849B84AA84B984C88468
S11308D0DF80EE80FD800C811B81AA81B981CE0F5F
S11108E0D11DCDBFDEBFED010895F894FFCF0A
S11308EE5265636569766564205541525420736977
S11308FE676E616C3A20002E20726573756C743AC3
S10C090E2000250A0D00256400F7
S1050917410396
S9030000FC
