:100000000C9450000C9462000C9462000C946200FA
:100010000C9462000C9462000C9462000C946200D8
:100020000C9462000C9462000C9462000C946200C8
:100030000C9462000C9462000C9462000C946200B8
:100040000C9462000C9462000C9462000C946200A8
:100050000C9462000C9462000C9462000C94620098
:100060000C9462000C9462000C9462000C94620088
:100070000C9462000C9462000C9462000C94620078
:100080000C9462000C9462000C9462000C94620068
:100090000C9462000C9487000C9462000C94620033
:1000A00011241FBECFEFCDBFDFE3DEBF28E2A0E00B
:1000B000B8E201C01D92A130B207E1F70E94010130
:1000C0000C9494040C940000E0E0F6E084E080835B
:1000D00081E580930206109206068081816080830C
:1000E000089581E08093080680910B0680FFFCCF85
:1000F0008091100690911106089588ED90E084BFDC
:100100009093600093E184BF9093610008951F92E3
:100110000F920FB60F9211242F933F934F935F933B
:100120006F937F938F939F93AF93BF93CF93EF93EF
:10013000FF930E948501C82F843739F48CE299E43B
:100140000E9446010E9427014AC0823791F489E546
:1001500099E40E9446010E9423012FE38DE093E081
:10016000215080409040E1F700C000000E941F0134
:1001700036C0833649F585E999E40E9446010E941C
:10018000710090E08F5F91099C0122F422273327B0
:10019000281B390B44E6429FC001439F900D112458
:1001A0006FEF70E00E9488016093002883ED99E46E
:1001B0000E9446018091002890E00E945C018FE03F
:1001C0009AE40E9446010BC086EE99E40E94460123
:1001D0008C2F0E943F018DEF99E40E944601FF9110
:1001E000EF91CF91BF91AF919F918F917F916F913F
:1001F0005F914F913F912F910F900FBE0F901F90E5
:1002000018950E947D000E940F010E9464000E94C8
:10021000190181E493E00E942B017894FFCF83E0E1
:100220008093810482E08093850481E0809386043A
:10023000089580E88093610480936604089580E8BF
:1002400080936604089580E880936504089580E8AB
:10025000809367040895809368089093690883E009
:100260008093670881E08093210482E080932204D8
:1002700080E88093650880EC8093660808958093F9
:1002800062088091640885FFFCCF08950F931F9347
:10029000CF93DF938C01C0E0D0E003C00E943F0108
:1002A0002196F801EC0FFD1F80818111F7CFDF91BE
:1002B000CF911F910F9108950F931F93CF93DF93C9
:1002C000CDB7DEB7C456D109CDBFDEBF9F938F93A4
:1002D00082E19AE49F938F938E010F5F1F4F1F93CC
:1002E0000F930E94B001C8010E9446010F900F9029
:1002F0000F900F900F900F90CC59DF4FCDBFDEBF06
:10030000DF91CF911F910F9108958091600808951A
:1003100097FB072E16F4009407D077FD09D00E94B2
:100320009C0107FC05D03EF4909581959F4F089560
:10033000709561957F4F0895AA1BBB1B51E107C0C3
:10034000AA1FBB1FA617B70710F0A61BB70B881F65
:10035000991F5A95A9F780959095BC01CD010895F4
:10036000AEE0B0E0E6EBF1E00C9471040D891E897B
:1003700086E08C8309831A838FEF9FE78D839E83AA
:10038000AE01475E5F4F6F89788DCE0101960E9466
:10039000D201EF81F885E00FF11F10822E96E4E084
:1003A0000C948A04ABE0B0E0E8EDF1E00C94630457
:1003B0006C017B018A01FC0116821782838181FF17
:1003C000CCC1CE0101963C01F6019381F70193FD6A
:1003D000859193FF81917F01882309F4BAC1853209
:1003E00039F493FD859193FF81917F01853229F442
:1003F000B60190E00E94C903E7CF912C212C312C4B
:10040000FFE1F315D8F08B3279F038F4803279F0CF
:100410008332A1F4232D20611DC08D3261F0803321
:1004200069F4232D216016C0832D8260382EE32DC0
:10043000E4603E2E2AC0F32DF8601DC037FC2DC0AD
:1004400020ED280F2A3040F08E32B9F436FC81C1FD
:10045000232D2064322E19C036FE06C08AE0989EF5
:10046000200D1124922E11C0EAE02E9E200D1124A1
:10047000222EF32DF0623F2E08C08C3621F4832DFE
:100480008068382E02C0883641F4F70193FD8591CB
:1004900093FF81917F018111B3CF982F9F7D955458
:1004A000933028F40C5F1F4F9FE399830DC0833670
:1004B00031F0833771F0833509F059C021C0F8015C
:1004C000808189830E5F1F4F88248394912C530170
:1004D00013C02801F2E04F0E511CF801A080B1803A
:1004E00036FE03C0692D70E002C06FEF7FEFC501DB
:1004F0000E94BE034C018201F32DFF773F2E16C0F0
:10050000280122E0420E511CF801A080B18036FE85
:1005100003C0692D70E002C06FEF7FEFC5010E943C
:10052000B3034C01F32DF0683F2E820133FC1BC056
:10053000822D90E088169906B0F4B60180E290E032
:100540000E94C9032A94F4CFF50137FC859137FE48
:1005500081915F01B60190E00E94C90321102A94A5
:1005600021E0821A91088114910471F7E8C0843661
:1005700011F0893641F5F80137FE07C060817181BD
:10058000828193810C5F1F4F08C060817181072EAB
:10059000000C880B990B0E5F1F4FF32DFF763F2E3B
:1005A00097FF09C090958095709561957F4F8F4F0B
:1005B0009F4FF0683F2E2AE030E0A3010E9405041F
:1005C000882E861845C0853731F4232D2F7EB22E14
:1005D0002AE030E025C0932D997FB92E8F36C1F0E7
:1005E00018F4883579F0B5C0803719F0883721F0D4
:1005F000B0C0E92FE061BE2EB4FE0DC0FB2DF4604B
:10060000BF2E09C034FE0AC0292F2660B22E06C0B4
:1006100028E030E005C020E130E002C020E132E017
:10062000F801B7FE07C060817181828193810C5F00
:100630001F4F06C06081718180E090E00E5F1F4F08
:10064000A3010E940504882E8618FB2DFF773F2EFC
:1006500036FE0DC0232D2E7FA22E891458F434FEB1
:100660000BC032FC09C0832D8E7EA82E05C0B82C8D
:10067000A32C03C0B82C01C0B92CA4FE0FC0FE01EE
:10068000E80DF11D8081803321F49A2D997EA92EE9
:1006900009C0A2FE06C0B394B39404C08A2D867824
:1006A00009F0B394A3FC11C0A0FE06C0B21488F4F4
:1006B000280C922C9B180EC0B21460F4B60180E294
:1006C00090E00E94C903B394F7CFB21418F42B182A
:1006D00002C0982C212CA4FE10C0B60180E390E04B
:1006E0000E94C903A2FE17C0A1FC03C088E790E0E6
:1006F00002C088E590E0B6010CC08A2D867859F0DA
:10070000A1FE02C08BE201C080E2A7FC8DE2B6012F
:1007100090E00E94C903891438F4B60180E390E0A8
:100720000E94C9039A94F7CF8A94F301E80DF11D52
:100730008081B60190E00E94C9038110F5CF22208C
:1007400009F442CEB60180E290E00E94C9032A94E7
:10075000F6CFF6018681978102C08FEF9FEF2B962F
:10076000E2E10C947C04FC010590615070400110A2
:10077000D8F7809590958E0F9F1F0895FC016150CA
:10078000704001900110D8F7809590958E0F9F1FB3
:1007900008950F931F93CF93DF93FB01238121FDD6
:1007A00003C08FEF9FEF2CC022FF16C046815781F8
:1007B000248135814217530744F4A081B1819D0102
:1007C0002F5F3F4F208331838C93268137812F5FAA
:1007D0003F4F2683378314C08B01EC01FB0100845B
:1007E000F185E02D0995892BE1F6D80116968D91BA
:1007F0009C911797019616968D939C931797CE010F
:10080000DF91CF911F910F910895FA01AA27283007
:1008100051F1203181F1E8946F936E7F6E5F7F4FCD
:100820008F4F9F4FAF4FB1E03ED0B4E03CD0670F49
:10083000781F891F9A1FA11D680F791F8A1F911D9C
:10084000A11D6A0F711D811D911DA11D20D009F4EC
:1008500068943F912AE0269F11243019305D31932E
:10086000DEF6CF010895462F4770405D4193B3E017
:100870000FD0C9F7F6CF462F4F70405D4A3318F0BE
:10088000495D31FD4052419302D0A9F7EACFB4E06F
:10089000A6959795879577956795BA95C9F7009727
:1008A0006105710508959B01AC010A2E06945795C8
:1008B000479537952795BA95C9F7620F731F841F1F
:1008C000951FA01D08952F923F924F925F926F92B5
:1008D0007F928F929F92AF92BF92CF92DF92EF92D0
:1008E000FF920F931F93CF93DF93CDB7DEB7CA1B51
:1008F000DB0BCDBFDEBF09942A88398848885F8426
:100900006E847D848C849B84AA84B984C884DF80AF
:10091000EE80FD800C811B81AA81B981CE0FD11D93
:0C092000CDBFDEBFED010895F894FFCFBD
:10092C00526563656976656420554152542073693C
:10093C00676E616C3A202774270A0D546F67676CD9
:10094C00696E672072656C61792E0A0D00526563C1
:10095C0065697665642055415254207369676E61F0
:10096C006C3A202772270A0D52756E6E696E6720DD
:10097C006F6E65207761746572696E67207365713F
:10098C0075656E63652E0A0D005265636569766543
:10099C00642055415254207369676E616C3A20276C
:1009AC0063270A0D436865636B696E672063757214
:1009BC0072656E74206D6F697374757265206C65E9
:1009CC0076656C2E0A0D0043757272656E74204D3F
:1009DC006F6973747572653A200052656365697648
:1009EC0065642055415254207369676E616C3A20DE
:1009FC00000A0D556E6B6E6F776E20436F6D6D61D7
:090A0C006E642E0A0D0025640041
:00000001FF
